{
  "contractName": "ItemManager",
  "abi": [
    {
      "anonymous": false,
      "inputs": [
        {
          "indexed": false,
          "internalType": "uint256",
          "name": "_itemIndex",
          "type": "uint256"
        },
        {
          "indexed": false,
          "internalType": "uint256",
          "name": "_step",
          "type": "uint256"
        },
        {
          "indexed": false,
          "internalType": "address",
          "name": "_address",
          "type": "address"
        }
      ],
      "name": "SupplyChainStep",
      "type": "event"
    },
    {
      "anonymous": false,
      "inputs": [
        {
          "indexed": false,
          "internalType": "uint256",
          "name": "_enhancedSuppliedValue",
          "type": "uint256"
        }
      ],
      "name": "TestReturn",
      "type": "event"
    },
    {
      "inputs": [
        {
          "internalType": "uint256",
          "name": "",
          "type": "uint256"
        }
      ],
      "name": "items",
      "outputs": [
        {
          "internalType": "contract Item",
          "name": "_item",
          "type": "address"
        },
        {
          "internalType": "enum ItemManager.SupplyChainSteps",
          "name": "_step",
          "type": "uint8"
        },
        {
          "internalType": "string",
          "name": "_identifier",
          "type": "string"
        }
      ],
      "stateMutability": "view",
      "type": "function",
      "constant": true
    },
    {
      "inputs": [
        {
          "internalType": "uint256",
          "name": "_suppliedValue",
          "type": "uint256"
        }
      ],
      "name": "enhanceValue",
      "outputs": [],
      "stateMutability": "nonpayable",
      "type": "function"
    },
    {
      "inputs": [
        {
          "internalType": "string",
          "name": "_identifier",
          "type": "string"
        },
        {
          "internalType": "uint256",
          "name": "_priceInWei",
          "type": "uint256"
        }
      ],
      "name": "createItem",
      "outputs": [],
      "stateMutability": "nonpayable",
      "type": "function"
    },
    {
      "inputs": [
        {
          "internalType": "uint256",
          "name": "_index",
          "type": "uint256"
        }
      ],
      "name": "triggerPayment",
      "outputs": [],
      "stateMutability": "payable",
      "type": "function",
      "payable": true
    },
    {
      "inputs": [
        {
          "internalType": "uint256",
          "name": "_index",
          "type": "uint256"
        }
      ],
      "name": "triggerDelivery",
      "outputs": [],
      "stateMutability": "nonpayable",
      "type": "function"
    }
  ],
  "bytecode": "0x608060405234801561001057600080fd5b50611006806100206000396000f3fe60806040526004361061004a5760003560e01c806315458cf51461004f578063800fb83f1461008a5780638c551742146100b8578063bfb231d21461018a578063cd31831e1461026d575b600080fd5b34801561005b57600080fd5b506100886004803603602081101561007257600080fd5b81019080803590602001909291905050506102a8565b005b6100b6600480360360208110156100a057600080fd5b81019080803590602001909291905050506102e5565b005b3480156100c457600080fd5b50610188600480360360408110156100db57600080fd5b81019080803590602001906401000000008111156100f857600080fd5b82018360208201111561010a57600080fd5b8035906020019184600183028401116401000000008311171561012c57600080fd5b91908080601f016020809104026020016040519081016040528093929190818152602001838380828437600081840152601f19601f820116905080830192505050505050509192919290803590602001909291905050506105ee565b005b34801561019657600080fd5b506101c3600480360360208110156101ad57600080fd5b81019080803590602001909291905050506107ae565b604051808473ffffffffffffffffffffffffffffffffffffffff1681526020018360028111156101ef57fe5b815260200180602001828103825283818151815260200191508051906020019080838360005b83811015610230578082015181840152602081019050610215565b50505050905090810190601f16801561025d5780820380516001836020036101000a031916815260200191505b5094505050505060405180910390f35b34801561027957600080fd5b506102a66004803603602081101561029057600080fd5b810190808035906020019092919050505061089d565b005b7f3911b38163ddb7f3e74ae4e2e0bbfec271f4dd826964e059ebf09d75af363281600182016040518082815260200191505060405180910390a150565b600080600083815260200190815260200160002060000160009054906101000a900473ffffffffffffffffffffffffffffffffffffffff1690503373ffffffffffffffffffffffffffffffffffffffff168173ffffffffffffffffffffffffffffffffffffffff16146103a3576040517f08c379a000000000000000000000000000000000000000000000000000000000815260040180806020018281038252602b815260200180610f83602b913960400191505060405180910390fd5b348173ffffffffffffffffffffffffffffffffffffffff16633c8da5886040518163ffffffff1660e01b815260040160206040518083038186803b1580156103ea57600080fd5b505afa1580156103fe573d6000803e3d6000fd5b505050506040513d602081101561041457600080fd5b810190808051906020019092919050505014610498576040517f08c379a00000000000000000000000000000000000000000000000000000000081526004018080602001828103825260128152602001807f4e6f742066756c6c79207061696420796574000000000000000000000000000081525060200191505060405180910390fd5b600060028111156104a557fe5b60008084815260200190815260200160002060000160149054906101000a900460ff1660028111156104d357fe5b14610529576040517f08c379a0000000000000000000000000000000000000000000000000000000008152600401808060200182810382526023815260200180610fae6023913960400191505060405180910390fd5b600160008084815260200190815260200160002060000160146101000a81548160ff0219169083600281111561055b57fe5b02179055507fa4035636e99f06b7651a604c1019fa4e8779fe68ef27eeb74dff2de348f6199b8260008085815260200190815260200160002060000160149054906101000a900460ff1660028111156105b057fe5b83604051808481526020018381526020018273ffffffffffffffffffffffffffffffffffffffff168152602001935050505060405180910390a15050565b6000308260015460405161060190610a27565b808473ffffffffffffffffffffffffffffffffffffffff1681526020018381526020018281526020019350505050604051809103906000f08015801561064b573d6000803e3d6000fd5b50905080600080600154815260200190815260200160002060000160006101000a81548173ffffffffffffffffffffffffffffffffffffffff021916908373ffffffffffffffffffffffffffffffffffffffff1602179055506000806000600154815260200190815260200160002060000160146101000a81548160ff021916908360028111156106d857fe5b02179055508260008060015481526020019081526020016000206001019080519060200190610708929190610a34565b507fa4035636e99f06b7651a604c1019fa4e8779fe68ef27eeb74dff2de348f6199b600154600080600154815260200190815260200160002060000160149054906101000a900460ff16600281111561075d57fe5b83604051808481526020018381526020018273ffffffffffffffffffffffffffffffffffffffff168152602001935050505060405180910390a1600160008154809291906001019190505550505050565b60006020528060005260406000206000915090508060000160009054906101000a900473ffffffffffffffffffffffffffffffffffffffff16908060000160149054906101000a900460ff1690806001018054600181600116156101000203166002900480601f0160208091040260200160405190810160405280929190818152602001828054600181600116156101000203166002900480156108935780601f1061086857610100808354040283529160200191610893565b820191906000526020600020905b81548152906001019060200180831161087657829003601f168201915b5050505050905083565b600160028111156108aa57fe5b60008083815260200190815260200160002060000160149054906101000a900460ff1660028111156108d857fe5b1461092e576040517f08c379a0000000000000000000000000000000000000000000000000000000008152600401808060200182810382526023815260200180610fae6023913960400191505060405180910390fd5b600260008083815260200190815260200160002060000160146101000a81548160ff0219169083600281111561096057fe5b02179055507fa4035636e99f06b7651a604c1019fa4e8779fe68ef27eeb74dff2de348f6199b8160008084815260200190815260200160002060000160149054906101000a900460ff1660028111156109b557fe5b60008085815260200190815260200160002060000160009054906101000a900473ffffffffffffffffffffffffffffffffffffffff16604051808481526020018381526020018273ffffffffffffffffffffffffffffffffffffffff168152602001935050505060405180910390a150565b6104b180610ad283390190565b828054600181600116156101000203166002900490600052602060002090601f016020900481019282601f10610a7557805160ff1916838001178555610aa3565b82800160010185558215610aa3579182015b82811115610aa2578251825591602001919060010190610a87565b5b509050610ab09190610ab4565b5090565b5b80821115610acd576000816000905550600101610ab5565b509056fe608060405234801561001057600080fd5b506040516104b13803806104b18339818101604052606081101561003357600080fd5b81019080805190602001909291908051906020019092919080519060200190929190505050816000819055508060028190555082600360006101000a81548173ffffffffffffffffffffffffffffffffffffffff021916908373ffffffffffffffffffffffffffffffffffffffff1602179055505050506103f8806100b96000396000f3fe6080604052600436106100385760003560e01c80632986c0e51461030e5780633c8da5881461033957806383d12eef14610364576102ff565b366102ff576000543414610097576040517f08c379a00000000000000000000000000000000000000000000000000000000081526004018080602001828103825260218152602001806103a26021913960400191505060405180910390fd5b60006001541461010f576040517f08c379a00000000000000000000000000000000000000000000000000000000081526004018080602001828103825260158152602001807f4974656d20697320616c7265616479207061696421000000000000000000000081525060200191505060405180910390fd5b346001600082825401925050819055506000600360009054906101000a900473ffffffffffffffffffffffffffffffffffffffff1673ffffffffffffffffffffffffffffffffffffffff1634600254604051602401808281526020019150506040516020818303038152906040527f800fb83f000000000000000000000000000000000000000000000000000000007bffffffffffffffffffffffffffffffffffffffffffffffffffffffff19166020820180517bffffffffffffffffffffffffffffffffffffffffffffffffffffffff83818316178352505050506040518082805190602001908083835b6020831061021e57805182526020820191506020810190506020830392506101fb565b6001836020036101000a03801982511681845116808217855250505050505090500191505060006040518083038185875af1925050503d8060008114610280576040519150601f19603f3d011682016040523d82523d6000602084013e610285565b606091505b50509050806102fc576040517f08c379a00000000000000000000000000000000000000000000000000000000081526004018080602001828103825260158152602001807f44656c697665727920646964206e6f7420776f726b000000000000000000000081525060200191505060405180910390fd5b50005b34801561030b57600080fd5b50005b34801561031a57600080fd5b5061032361038f565b6040518082815260200191505060405180910390f35b34801561034557600080fd5b5061034e610395565b6040518082815260200191505060405180910390f35b34801561037057600080fd5b5061037961039b565b6040518082815260200191505060405180910390f35b60025481565b60005481565b6001548156fe576520646f6e277420737570706f7274207061727469616c207061796d656e7473a2646970667358221220aaecb4f5e7092ca3e8c357a36bbc2a78676d456f30a913b6cdb07b8018ff586b64736f6c634300060c00334f6e6c79206974656d732061726520616c6c6f77656420746f20757064617465207468656d73656c7665734974656d206973206675727468657220696e2074686520737570706c7920636861696ea2646970667358221220059740c5d9a6cdc378e8e63cdda903d9ec2411c47e9fd823198c9e803d32a87164736f6c634300060c0033",
  "immutableReferences": {},
  "source": "//SPDX-License-Identifier: MIT\r\n\r\npragma solidity >=0.4.21 <8.10.0;\r\n\r\nimport \"./Item.sol\";\r\n\r\ncontract ItemManager {\r\n\r\n    struct S_Item {\r\n        Item _item;\r\n        ItemManager.SupplyChainSteps _step;\r\n        string _identifier;\r\n    }\r\n    mapping(uint => S_Item) public items;\r\n    uint index;\r\n\r\n    enum SupplyChainSteps {Created, Paid, Delivered}\r\n\r\n    event SupplyChainStep(uint _itemIndex, uint _step, address _address);\r\n    event TestReturn(uint _enhancedSuppliedValue);\r\n\r\n    function enhanceValue(uint _suppliedValue) public {\r\n        emit TestReturn(_suppliedValue + 1);\r\n    }\r\n\r\n    function createItem(string memory _identifier, uint _priceInWei) public {\r\n        Item item = new Item(this, _priceInWei, index);\r\n        items[index]._item = item;\r\n        items[index]._step = SupplyChainSteps.Created;\r\n        items[index]._identifier = _identifier;\r\n        emit SupplyChainStep(index, uint(items[index]._step), address(item));\r\n        index++;\r\n    }\r\n\r\n    function triggerPayment(uint _index) public payable {\r\n        Item item = items[_index]._item;\r\n        require(address(item) == msg.sender, \"Only items are allowed to update themselves\");\r\n        require(item.priceInWei() == msg.value, \"Not fully paid yet\");\r\n        require(items[_index]._step == SupplyChainSteps.Created, \"Item is further in the supply chain\");\r\n        items[_index]._step = SupplyChainSteps.Paid;\r\n        emit SupplyChainStep(_index, uint(items[_index]._step), address(item));\r\n    }\r\n\r\n    function triggerDelivery(uint _index) public {\r\n        require(items[_index]._step == SupplyChainSteps.Paid, \"Item is further in the supply chain\");\r\n        items[_index]._step = SupplyChainSteps.Delivered;\r\n        emit SupplyChainStep(_index, uint(items[_index]._step), address(items[_index]._item));\r\n    }\r\n}\r\n",
  "sourcePath": "C:\\Users\\usuario\\Documents\\Blockchain\\Udemy Course\\Supply chain project\\contracts\\ItemManager.sol",
  "compiler": {
    "name": "solc",
    "version": "0.6.12+commit.27d51765.Emscripten.clang"
  },
  "schemaVersion": "3.4.4",
  "updatedAt": "2022-01-08T19:05:43.913Z",
  "networkType": "ethereum",
  "devdoc": {
    "kind": "dev",
    "methods": {},
    "version": 1
  },
  "userdoc": {
    "kind": "user",
    "methods": {},
    "version": 1
  }
}